{
  "address": "0xe7f1725E7734CE288F8367e1Bb143E90bb3F0512",
  "abi": [
    {
      "inputs": [
        {
          "internalType": "address",
          "name": "priceFeedAddress",
          "type": "address"
        }
      ],
      "stateMutability": "nonpayable",
      "type": "constructor"
    },
    {
      "inputs": [],
      "name": "NotOwner",
      "type": "error"
    },
    {
      "inputs": [
        {
          "internalType": "address",
          "name": "",
          "type": "address"
        }
      ],
      "name": "addressToAmountFunded",
      "outputs": [
        {
          "internalType": "uint256",
          "name": "",
          "type": "uint256"
        }
      ],
      "stateMutability": "view",
      "type": "function"
    },
    {
      "inputs": [],
      "name": "fund",
      "outputs": [],
      "stateMutability": "payable",
      "type": "function"
    },
    {
      "inputs": [
        {
          "internalType": "uint256",
          "name": "",
          "type": "uint256"
        }
      ],
      "name": "funders",
      "outputs": [
        {
          "internalType": "address",
          "name": "",
          "type": "address"
        }
      ],
      "stateMutability": "view",
      "type": "function"
    },
    {
      "inputs": [],
      "name": "minimumUsd",
      "outputs": [
        {
          "internalType": "uint256",
          "name": "",
          "type": "uint256"
        }
      ],
      "stateMutability": "view",
      "type": "function"
    },
    {
      "inputs": [],
      "name": "owner",
      "outputs": [
        {
          "internalType": "address",
          "name": "",
          "type": "address"
        }
      ],
      "stateMutability": "view",
      "type": "function"
    },
    {
      "inputs": [],
      "name": "priceFeed",
      "outputs": [
        {
          "internalType": "contract AggregatorV3Interface",
          "name": "",
          "type": "address"
        }
      ],
      "stateMutability": "view",
      "type": "function"
    },
    {
      "inputs": [],
      "name": "withdraw",
      "outputs": [],
      "stateMutability": "nonpayable",
      "type": "function"
    }
  ],
  "transactionHash": "0x2d782d92fe661f79fd7bbce5b4cb0b0c14d21ee1475bbe82de3d8108579ed85c",
  "args": [
    "0x5FbDB2315678afecb367f032d93F642f64180aa3"
  ],
  "numDeployments": 1,
  "solcInputHash": "bae3f625bdb8fb6aaf7ec8bf08271d94",
  "bytecode": "0x608060405234801561001057600080fd5b50604051610e92380380610e928339818101604052810190610032919061011c565b336000806101000a81548173ffffffffffffffffffffffffffffffffffffffff021916908373ffffffffffffffffffffffffffffffffffffffff16021790555080600160006101000a81548173ffffffffffffffffffffffffffffffffffffffff021916908373ffffffffffffffffffffffffffffffffffffffff16021790555050610149565b600080fd5b600073ffffffffffffffffffffffffffffffffffffffff82169050919050565b60006100e9826100be565b9050919050565b6100f9816100de565b811461010457600080fd5b50565b600081519050610116816100f0565b92915050565b600060208284031215610132576101316100b9565b5b600061014084828501610107565b91505092915050565b610d3a806101586000396000f3fe6080604052600436106100705760003560e01c8063741bef1a1161004e578063741bef1a146100f45780638da5cb5b1461011f578063b60d42881461014a578063dc0d3dff1461015457610070565b8063098de820146100755780633ccfd60b146100a05780633e47d6f3146100b7575b600080fd5b34801561008157600080fd5b5061008a610191565b6040516100979190610736565b60405180910390f35b3480156100ac57600080fd5b506100b561019e565b005b3480156100c357600080fd5b506100de60048036038101906100d991906107b4565b6103df565b6040516100eb9190610736565b60405180910390f35b34801561010057600080fd5b506101096103f7565b6040516101169190610840565b60405180910390f35b34801561012b57600080fd5b5061013461041d565b604051610141919061086a565b60405180910390f35b610152610441565b005b34801561016057600080fd5b5061017b600480360381019061017691906108b1565b61056a565b604051610188919061086a565b60405180910390f35b6802b5e3af16b188000081565b60008054906101000a900473ffffffffffffffffffffffffffffffffffffffff1673ffffffffffffffffffffffffffffffffffffffff163373ffffffffffffffffffffffffffffffffffffffff1614610223576040517f30cd747100000000000000000000000000000000000000000000000000000000815260040160405180910390fd5b60005b6002805490508110156102cf57600060028281548110610249576102486108de565b5b9060005260206000200160009054906101000a900473ffffffffffffffffffffffffffffffffffffffff1690506000600360008373ffffffffffffffffffffffffffffffffffffffff1673ffffffffffffffffffffffffffffffffffffffff168152602001908152602001600020819055505080806102c79061093c565b915050610226565b50600067ffffffffffffffff8111156102eb576102ea610984565b5b6040519080825280602002602001820160405280156103195781602001602082028036833780820191505090505b506002908051906020019061032f929190610676565b5060003373ffffffffffffffffffffffffffffffffffffffff1647604051610356906109e4565b60006040518083038185875af1925050503d8060008114610393576040519150601f19603f3d011682016040523d82523d6000602084013e610398565b606091505b50509050806103dc576040517f08c379a00000000000000000000000000000000000000000000000000000000081526004016103d390610a56565b60405180910390fd5b50565b60036020528060005260406000206000915090505481565b600160009054906101000a900473ffffffffffffffffffffffffffffffffffffffff1681565b60008054906101000a900473ffffffffffffffffffffffffffffffffffffffff1681565b6802b5e3af16b1880000610480600160009054906101000a900473ffffffffffffffffffffffffffffffffffffffff16346105a990919063ffffffff16565b10156104c1576040517f08c379a00000000000000000000000000000000000000000000000000000000081526004016104b890610ac2565b60405180910390fd5b6002339080600181540180825580915050600190039060005260206000200160009091909190916101000a81548173ffffffffffffffffffffffffffffffffffffffff021916908373ffffffffffffffffffffffffffffffffffffffff16021790555034600360003373ffffffffffffffffffffffffffffffffffffffff1673ffffffffffffffffffffffffffffffffffffffff16815260200190815260200160002081905550565b6002818154811061057a57600080fd5b906000526020600020016000915054906101000a900473ffffffffffffffffffffffffffffffffffffffff1681565b6000806105b5836105e5565b90506000670de0b6b3a764000085836105ce9190610ae2565b6105d89190610b53565b9050809250505092915050565b6000808273ffffffffffffffffffffffffffffffffffffffff1663feaf968c6040518163ffffffff1660e01b815260040160a060405180830381865afa158015610633573d6000803e3d6000fd5b505050506040513d601f19601f820116820180604052508101906106579190610c11565b5050509150506402540be4008161066e9190610c8c565b915050919050565b8280548282559060005260206000209081019282156106ef579160200282015b828111156106ee5782518260006101000a81548173ffffffffffffffffffffffffffffffffffffffff021916908373ffffffffffffffffffffffffffffffffffffffff16021790555091602001919060010190610696565b5b5090506106fc9190610700565b5090565b5b80821115610719576000816000905550600101610701565b5090565b6000819050919050565b6107308161071d565b82525050565b600060208201905061074b6000830184610727565b92915050565b600080fd5b600073ffffffffffffffffffffffffffffffffffffffff82169050919050565b600061078182610756565b9050919050565b61079181610776565b811461079c57600080fd5b50565b6000813590506107ae81610788565b92915050565b6000602082840312156107ca576107c9610751565b5b60006107d88482850161079f565b91505092915050565b6000819050919050565b60006108066108016107fc84610756565b6107e1565b610756565b9050919050565b6000610818826107eb565b9050919050565b600061082a8261080d565b9050919050565b61083a8161081f565b82525050565b60006020820190506108556000830184610831565b92915050565b61086481610776565b82525050565b600060208201905061087f600083018461085b565b92915050565b61088e8161071d565b811461089957600080fd5b50565b6000813590506108ab81610885565b92915050565b6000602082840312156108c7576108c6610751565b5b60006108d58482850161089c565b91505092915050565b7f4e487b7100000000000000000000000000000000000000000000000000000000600052603260045260246000fd5b7f4e487b7100000000000000000000000000000000000000000000000000000000600052601160045260246000fd5b60006109478261071d565b91507fffffffffffffffffffffffffffffffffffffffffffffffffffffffffffffffff82036109795761097861090d565b5b600182019050919050565b7f4e487b7100000000000000000000000000000000000000000000000000000000600052604160045260246000fd5b600081905092915050565b50565b60006109ce6000836109b3565b91506109d9826109be565b600082019050919050565b60006109ef826109c1565b9150819050919050565b600082825260208201905092915050565b7f43616c6c206661696c6564000000000000000000000000000000000000000000600082015250565b6000610a40600b836109f9565b9150610a4b82610a0a565b602082019050919050565b60006020820190508181036000830152610a6f81610a33565b9050919050565b7f4469646e27742073656e6420656e6f7567682100000000000000000000000000600082015250565b6000610aac6013836109f9565b9150610ab782610a76565b602082019050919050565b60006020820190508181036000830152610adb81610a9f565b9050919050565b6000610aed8261071d565b9150610af88361071d565b9250828202610b068161071d565b91508282048414831517610b1d57610b1c61090d565b5b5092915050565b7f4e487b7100000000000000000000000000000000000000000000000000000000600052601260045260246000fd5b6000610b5e8261071d565b9150610b698361071d565b925082610b7957610b78610b24565b5b828204905092915050565b600069ffffffffffffffffffff82169050919050565b610ba381610b84565b8114610bae57600080fd5b50565b600081519050610bc081610b9a565b92915050565b6000819050919050565b610bd981610bc6565b8114610be457600080fd5b50565b600081519050610bf681610bd0565b92915050565b600081519050610c0b81610885565b92915050565b600080600080600060a08688031215610c2d57610c2c610751565b5b6000610c3b88828901610bb1565b9550506020610c4c88828901610be7565b9450506040610c5d88828901610bfc565b9350506060610c6e88828901610bfc565b9250506080610c7f88828901610bb1565b9150509295509295909350565b6000610c9782610bc6565b9150610ca283610bc6565b9250828202610cb081610bc6565b91507f80000000000000000000000000000000000000000000000000000000000000008414600084121615610ce857610ce761090d565b5b8282058414831517610cfd57610cfc61090d565b5b509291505056fea264697066735822122002a29c18c5506afbd18c9f5d11405e5cfefae2611a92e3ab7c1e275541dfe80f64736f6c63430008110033",
  "devdoc": {
    "kind": "dev",
    "methods": {},
    "version": 1
  },
  "userdoc": {
    "kind": "user",
    "methods": {},
    "version": 1
  },
  "storageLayout": {
    "storage": [
      {
        "astId": 55,
        "contract": "contracts/fund-me.sol:FundMe",
        "label": "owner",
        "offset": 0,
        "slot": "0",
        "type": "t_address"
      },
      {
        "astId": 58,
        "contract": "contracts/fund-me.sol:FundMe",
        "label": "priceFeed",
        "offset": 0,
        "slot": "1",
        "type": "t_contract(AggregatorV3Interface)45"
      },
      {
        "astId": 61,
        "contract": "contracts/fund-me.sol:FundMe",
        "label": "funders",
        "offset": 0,
        "slot": "2",
        "type": "t_array(t_address)dyn_storage"
      },
      {
        "astId": 65,
        "contract": "contracts/fund-me.sol:FundMe",
        "label": "addressToAmountFunded",
        "offset": 0,
        "slot": "3",
        "type": "t_mapping(t_address,t_uint256)"
      }
    ],
    "types": {
      "t_address": {
        "encoding": "inplace",
        "label": "address",
        "numberOfBytes": "20"
      },
      "t_array(t_address)dyn_storage": {
        "base": "t_address",
        "encoding": "dynamic_array",
        "label": "address[]",
        "numberOfBytes": "32"
      },
      "t_contract(AggregatorV3Interface)45": {
        "encoding": "inplace",
        "label": "contract AggregatorV3Interface",
        "numberOfBytes": "20"
      },
      "t_mapping(t_address,t_uint256)": {
        "encoding": "mapping",
        "key": "t_address",
        "label": "mapping(address => uint256)",
        "numberOfBytes": "32",
        "value": "t_uint256"
      },
      "t_uint256": {
        "encoding": "inplace",
        "label": "uint256",
        "numberOfBytes": "32"
      }
    }
  }
}